{
  "_format": "hh-sol-artifact-1",
  "contractName": "RealEstate",
  "sourceName": "contracts/RealEstate.sol",
  "abi": [
    {
      "inputs": [],
      "stateMutability": "nonpayable",
      "type": "constructor"
    },
    {
      "anonymous": false,
      "inputs": [
        {
          "indexed": true,
          "internalType": "address",
          "name": "owner",
          "type": "address"
        },
        {
          "indexed": true,
          "internalType": "address",
          "name": "approved",
          "type": "address"
        },
        {
          "indexed": true,
          "internalType": "uint256",
          "name": "tokenId",
          "type": "uint256"
        }
      ],
      "name": "Approval",
      "type": "event"
    },
    {
      "anonymous": false,
      "inputs": [
        {
          "indexed": true,
          "internalType": "address",
          "name": "owner",
          "type": "address"
        },
        {
          "indexed": true,
          "internalType": "address",
          "name": "operator",
          "type": "address"
        },
        {
          "indexed": false,
          "internalType": "bool",
          "name": "approved",
          "type": "bool"
        }
      ],
      "name": "ApprovalForAll",
      "type": "event"
    },
    {
      "anonymous": false,
      "inputs": [
        {
          "indexed": true,
          "internalType": "address",
          "name": "from",
          "type": "address"
        },
        {
          "indexed": true,
          "internalType": "address",
          "name": "to",
          "type": "address"
        },
        {
          "indexed": true,
          "internalType": "uint256",
          "name": "tokenId",
          "type": "uint256"
        }
      ],
      "name": "Transfer",
      "type": "event"
    },
    {
      "inputs": [
        {
          "internalType": "address",
          "name": "to",
          "type": "address"
        },
        {
          "internalType": "uint256",
          "name": "tokenId",
          "type": "uint256"
        }
      ],
      "name": "approve",
      "outputs": [],
      "stateMutability": "nonpayable",
      "type": "function"
    },
    {
      "inputs": [
        {
          "internalType": "address",
          "name": "owner",
          "type": "address"
        }
      ],
      "name": "balanceOf",
      "outputs": [
        {
          "internalType": "uint256",
          "name": "",
          "type": "uint256"
        }
      ],
      "stateMutability": "view",
      "type": "function"
    },
    {
      "inputs": [
        {
          "internalType": "uint256",
          "name": "tokenId",
          "type": "uint256"
        }
      ],
      "name": "getApproved",
      "outputs": [
        {
          "internalType": "address",
          "name": "",
          "type": "address"
        }
      ],
      "stateMutability": "view",
      "type": "function"
    },
    {
      "inputs": [
        {
          "internalType": "address",
          "name": "owner",
          "type": "address"
        },
        {
          "internalType": "address",
          "name": "operator",
          "type": "address"
        }
      ],
      "name": "isApprovedForAll",
      "outputs": [
        {
          "internalType": "bool",
          "name": "",
          "type": "bool"
        }
      ],
      "stateMutability": "view",
      "type": "function"
    },
    {
      "inputs": [
        {
          "internalType": "string",
          "name": "tokenURI",
          "type": "string"
        }
      ],
      "name": "mint",
      "outputs": [
        {
          "internalType": "uint256",
          "name": "",
          "type": "uint256"
        }
      ],
      "stateMutability": "nonpayable",
      "type": "function"
    },
    {
      "inputs": [],
      "name": "name",
      "outputs": [
        {
          "internalType": "string",
          "name": "",
          "type": "string"
        }
      ],
      "stateMutability": "view",
      "type": "function"
    },
    {
      "inputs": [
        {
          "internalType": "uint256",
          "name": "tokenId",
          "type": "uint256"
        }
      ],
      "name": "ownerOf",
      "outputs": [
        {
          "internalType": "address",
          "name": "",
          "type": "address"
        }
      ],
      "stateMutability": "view",
      "type": "function"
    },
    {
      "inputs": [
        {
          "internalType": "address",
          "name": "from",
          "type": "address"
        },
        {
          "internalType": "address",
          "name": "to",
          "type": "address"
        },
        {
          "internalType": "uint256",
          "name": "tokenId",
          "type": "uint256"
        }
      ],
      "name": "safeTransferFrom",
      "outputs": [],
      "stateMutability": "nonpayable",
      "type": "function"
    },
    {
      "inputs": [
        {
          "internalType": "address",
          "name": "from",
          "type": "address"
        },
        {
          "internalType": "address",
          "name": "to",
          "type": "address"
        },
        {
          "internalType": "uint256",
          "name": "tokenId",
          "type": "uint256"
        },
        {
          "internalType": "bytes",
          "name": "_data",
          "type": "bytes"
        }
      ],
      "name": "safeTransferFrom",
      "outputs": [],
      "stateMutability": "nonpayable",
      "type": "function"
    },
    {
      "inputs": [
        {
          "internalType": "address",
          "name": "operator",
          "type": "address"
        },
        {
          "internalType": "bool",
          "name": "approved",
          "type": "bool"
        }
      ],
      "name": "setApprovalForAll",
      "outputs": [],
      "stateMutability": "nonpayable",
      "type": "function"
    },
    {
      "inputs": [
        {
          "internalType": "bytes4",
          "name": "interfaceId",
          "type": "bytes4"
        }
      ],
      "name": "supportsInterface",
      "outputs": [
        {
          "internalType": "bool",
          "name": "",
          "type": "bool"
        }
      ],
      "stateMutability": "view",
      "type": "function"
    },
    {
      "inputs": [],
      "name": "symbol",
      "outputs": [
        {
          "internalType": "string",
          "name": "",
          "type": "string"
        }
      ],
      "stateMutability": "view",
      "type": "function"
    },
    {
      "inputs": [
        {
          "internalType": "uint256",
          "name": "tokenId",
          "type": "uint256"
        }
      ],
      "name": "tokenURI",
      "outputs": [
        {
          "internalType": "string",
          "name": "",
          "type": "string"
        }
      ],
      "stateMutability": "view",
      "type": "function"
    },
    {
      "inputs": [
        {
          "internalType": "address",
          "name": "from",
          "type": "address"
        },
        {
          "internalType": "address",
          "name": "to",
          "type": "address"
        },
        {
          "internalType": "uint256",
          "name": "tokenId",
          "type": "uint256"
        }
      ],
      "name": "transferFrom",
      "outputs": [],
      "stateMutability": "nonpayable",
      "type": "function"
    }
  ],
  "bytecode": "0x60806040523480156200001157600080fd5b506040518060400160405280600b81526020017f5265616c204573746174650000000000000000000000000000000000000000008152506040518060400160405280600481526020017f5245414c0000000000000000000000000000000000000000000000000000000081525081600090805190602001906200009692919062000459565b508060019080519060200190620000af92919062000459565b505050620000dc6040518060800160405280604381526020016200335e60439139620000e360201b60201c565b5062000791565b6000620000fc60076200014460201b62000b291760201c565b60006200011560076200015a60201b62000b3f1760201c565b90506200012933826200016860201b60201c565b6200013b81846200036260201b60201c565b80915050919050565b6001816000016000828254019250508190555050565b600081600001549050919050565b600073ffffffffffffffffffffffffffffffffffffffff168273ffffffffffffffffffffffffffffffffffffffff161415620001db576040517f08c379a0000000000000000000000000000000000000000000000000000000008152600401620001d2906200056a565b60405180910390fd5b620001ec81620003e360201b60201c565b156200022f576040517f08c379a00000000000000000000000000000000000000000000000000000000081526004016200022690620005dc565b60405180910390fd5b62000243600083836200044f60201b60201c565b6001600360008473ffffffffffffffffffffffffffffffffffffffff1673ffffffffffffffffffffffffffffffffffffffff168152602001908152602001600020600082825462000295919062000637565b92505081905550816002600083815260200190815260200160002060006101000a81548173ffffffffffffffffffffffffffffffffffffffff021916908373ffffffffffffffffffffffffffffffffffffffff160217905550808273ffffffffffffffffffffffffffffffffffffffff16600073ffffffffffffffffffffffffffffffffffffffff167fddf252ad1be2c89b69c2b068fc378daa952ba7f163c4a11628f55a4df523b3ef60405160405180910390a46200035e600083836200045460201b60201c565b5050565b6200037382620003e360201b60201c565b620003b5576040517f08c379a0000000000000000000000000000000000000000000000000000000008152600401620003ac906200070a565b60405180910390fd5b80600660008481526020019081526020016000209080519060200190620003de92919062000459565b505050565b60008073ffffffffffffffffffffffffffffffffffffffff166002600084815260200190815260200160002060009054906101000a900473ffffffffffffffffffffffffffffffffffffffff1673ffffffffffffffffffffffffffffffffffffffff1614159050919050565b505050565b505050565b82805462000467906200075b565b90600052602060002090601f0160209004810192826200048b5760008555620004d7565b82601f10620004a657805160ff1916838001178555620004d7565b82800160010185558215620004d7579182015b82811115620004d6578251825591602001919060010190620004b9565b5b509050620004e69190620004ea565b5090565b5b8082111562000505576000816000905550600101620004eb565b5090565b600082825260208201905092915050565b7f4552433732313a206d696e7420746f20746865207a65726f2061646472657373600082015250565b60006200055260208362000509565b91506200055f826200051a565b602082019050919050565b60006020820190508181036000830152620005858162000543565b9050919050565b7f4552433732313a20746f6b656e20616c7265616479206d696e74656400000000600082015250565b6000620005c4601c8362000509565b9150620005d1826200058c565b602082019050919050565b60006020820190508181036000830152620005f781620005b5565b9050919050565b6000819050919050565b7f4e487b7100000000000000000000000000000000000000000000000000000000600052601160045260246000fd5b60006200064482620005fe565b91506200065183620005fe565b9250827fffffffffffffffffffffffffffffffffffffffffffffffffffffffffffffffff0382111562000689576200068862000608565b5b828201905092915050565b7f45524337323155524953746f726167653a2055524920736574206f66206e6f6e60008201527f6578697374656e7420746f6b656e000000000000000000000000000000000000602082015250565b6000620006f2602e8362000509565b9150620006ff8262000694565b604082019050919050565b600060208201905081810360008301526200072581620006e3565b9050919050565b7f4e487b7100000000000000000000000000000000000000000000000000000000600052602260045260246000fd5b600060028204905060018216806200077457607f821691505b602082108114156200078b576200078a6200072c565b5b50919050565b612bbd80620007a16000396000f3fe608060405234801561001057600080fd5b50600436106100ea5760003560e01c806370a082311161008c578063b88d4fde11610066578063b88d4fde1461025b578063c87b56dd14610277578063d85d3d27146102a7578063e985e9c5146102d7576100ea565b806370a08231146101f157806395d89b4114610221578063a22cb4651461023f576100ea565b8063095ea7b3116100c8578063095ea7b31461016d57806323b872dd1461018957806342842e0e146101a55780636352211e146101c1576100ea565b806301ffc9a7146100ef57806306fdde031461011f578063081812fc1461013d575b600080fd5b61010960048036038101906101049190611932565b610307565b604051610116919061197a565b60405180910390f35b6101276103e9565b6040516101349190611a2e565b60405180910390f35b61015760048036038101906101529190611a86565b61047b565b6040516101649190611af4565b60405180910390f35b61018760048036038101906101829190611b3b565b610500565b005b6101a3600480360381019061019e9190611b7b565b610618565b005b6101bf60048036038101906101ba9190611b7b565b610678565b005b6101db60048036038101906101d69190611a86565b610698565b6040516101e89190611af4565b60405180910390f35b61020b60048036038101906102069190611bce565b61074a565b6040516102189190611c0a565b60405180910390f35b610229610802565b6040516102369190611a2e565b60405180910390f35b61025960048036038101906102549190611c51565b610894565b005b61027560048036038101906102709190611dc6565b6108aa565b005b610291600480360381019061028c9190611a86565b61090c565b60405161029e9190611a2e565b60405180910390f35b6102c160048036038101906102bc9190611eea565b610a5e565b6040516102ce9190611c0a565b60405180910390f35b6102f160048036038101906102ec9190611f33565b610a95565b6040516102fe919061197a565b60405180910390f35b60007f80ac58cd000000000000000000000000000000000000000000000000000000007bffffffffffffffffffffffffffffffffffffffffffffffffffffffff1916827bffffffffffffffffffffffffffffffffffffffffffffffffffffffff191614806103d257507f5b5e139f000000000000000000000000000000000000000000000000000000007bffffffffffffffffffffffffffffffffffffffffffffffffffffffff1916827bffffffffffffffffffffffffffffffffffffffffffffffffffffffff1916145b806103e257506103e182610b4d565b5b9050919050565b6060600080546103f890611fa2565b80601f016020809104026020016040519081016040528092919081815260200182805461042490611fa2565b80156104715780601f1061044657610100808354040283529160200191610471565b820191906000526020600020905b81548152906001019060200180831161045457829003601f168201915b5050505050905090565b600061048682610bb7565b6104c5576040517f08c379a00000000000000000000000000000000000000000000000000000000081526004016104bc90612046565b60405180910390fd5b6004600083815260200190815260200160002060009054906101000a900473ffffffffffffffffffffffffffffffffffffffff169050919050565b600061050b82610698565b90508073ffffffffffffffffffffffffffffffffffffffff168373ffffffffffffffffffffffffffffffffffffffff16141561057c576040517f08c379a0000000000000000000000000000000000000000000000000000000008152600401610573906120d8565b60405180910390fd5b8073ffffffffffffffffffffffffffffffffffffffff1661059b610c23565b73ffffffffffffffffffffffffffffffffffffffff1614806105ca57506105c9816105c4610c23565b610a95565b5b610609576040517f08c379a00000000000000000000000000000000000000000000000000000000081526004016106009061216a565b60405180910390fd5b6106138383610c2b565b505050565b610629610623610c23565b82610ce4565b610668576040517f08c379a000000000000000000000000000000000000000000000000000000000815260040161065f906121fc565b60405180910390fd5b610673838383610dc2565b505050565b610693838383604051806020016040528060008152506108aa565b505050565b6000806002600084815260200190815260200160002060009054906101000a900473ffffffffffffffffffffffffffffffffffffffff169050600073ffffffffffffffffffffffffffffffffffffffff168173ffffffffffffffffffffffffffffffffffffffff161415610741576040517f08c379a00000000000000000000000000000000000000000000000000000000081526004016107389061228e565b60405180910390fd5b80915050919050565b60008073ffffffffffffffffffffffffffffffffffffffff168273ffffffffffffffffffffffffffffffffffffffff1614156107bb576040517f08c379a00000000000000000000000000000000000000000000000000000000081526004016107b290612320565b60405180910390fd5b600360008373ffffffffffffffffffffffffffffffffffffffff1673ffffffffffffffffffffffffffffffffffffffff168152602001908152602001600020549050919050565b60606001805461081190611fa2565b80601f016020809104026020016040519081016040528092919081815260200182805461083d90611fa2565b801561088a5780601f1061085f5761010080835404028352916020019161088a565b820191906000526020600020905b81548152906001019060200180831161086d57829003601f168201915b5050505050905090565b6108a661089f610c23565b8383611029565b5050565b6108bb6108b5610c23565b83610ce4565b6108fa576040517f08c379a00000000000000000000000000000000000000000000000000000000081526004016108f1906121fc565b60405180910390fd5b61090684848484611196565b50505050565b606061091782610bb7565b610956576040517f08c379a000000000000000000000000000000000000000000000000000000000815260040161094d906123b2565b60405180910390fd5b600060066000848152602001908152602001600020805461097690611fa2565b80601f01602080910402602001604051908101604052809291908181526020018280546109a290611fa2565b80156109ef5780601f106109c4576101008083540402835291602001916109ef565b820191906000526020600020905b8154815290600101906020018083116109d257829003601f168201915b505050505090506000610a006111f2565b9050600081511415610a16578192505050610a59565b600082511115610a4b578082604051602001610a3392919061240e565b60405160208183030381529060405292505050610a59565b610a5484611209565b925050505b919050565b6000610a6a6007610b29565b6000610a766007610b3f565b9050610a8233826112b0565b610a8c818461148a565b80915050919050565b6000600560008473ffffffffffffffffffffffffffffffffffffffff1673ffffffffffffffffffffffffffffffffffffffff16815260200190815260200160002060008373ffffffffffffffffffffffffffffffffffffffff1673ffffffffffffffffffffffffffffffffffffffff16815260200190815260200160002060009054906101000a900460ff16905092915050565b6001816000016000828254019250508190555050565b600081600001549050919050565b60007f01ffc9a7000000000000000000000000000000000000000000000000000000007bffffffffffffffffffffffffffffffffffffffffffffffffffffffff1916827bffffffffffffffffffffffffffffffffffffffffffffffffffffffff1916149050919050565b60008073ffffffffffffffffffffffffffffffffffffffff166002600084815260200190815260200160002060009054906101000a900473ffffffffffffffffffffffffffffffffffffffff1673ffffffffffffffffffffffffffffffffffffffff1614159050919050565b600033905090565b816004600083815260200190815260200160002060006101000a81548173ffffffffffffffffffffffffffffffffffffffff021916908373ffffffffffffffffffffffffffffffffffffffff160217905550808273ffffffffffffffffffffffffffffffffffffffff16610c9e83610698565b73ffffffffffffffffffffffffffffffffffffffff167f8c5be1e5ebec7d5bd14f71427d1e84f3dd0314c0f7b2291e5b200ac8c7c3b92560405160405180910390a45050565b6000610cef82610bb7565b610d2e576040517f08c379a0000000000000000000000000000000000000000000000000000000008152600401610d25906124a4565b60405180910390fd5b6000610d3983610698565b90508073ffffffffffffffffffffffffffffffffffffffff168473ffffffffffffffffffffffffffffffffffffffff161480610da857508373ffffffffffffffffffffffffffffffffffffffff16610d908461047b565b73ffffffffffffffffffffffffffffffffffffffff16145b80610db95750610db88185610a95565b5b91505092915050565b8273ffffffffffffffffffffffffffffffffffffffff16610de282610698565b73ffffffffffffffffffffffffffffffffffffffff1614610e38576040517f08c379a0000000000000000000000000000000000000000000000000000000008152600401610e2f90612536565b60405180910390fd5b600073ffffffffffffffffffffffffffffffffffffffff168273ffffffffffffffffffffffffffffffffffffffff161415610ea8576040517f08c379a0000000000000000000000000000000000000000000000000000000008152600401610e9f906125c8565b60405180910390fd5b610eb38383836114fe565b610ebe600082610c2b565b6001600360008573ffffffffffffffffffffffffffffffffffffffff1673ffffffffffffffffffffffffffffffffffffffff1681526020019081526020016000206000828254610f0e9190612617565b925050819055506001600360008473ffffffffffffffffffffffffffffffffffffffff1673ffffffffffffffffffffffffffffffffffffffff1681526020019081526020016000206000828254610f65919061264b565b92505081905550816002600083815260200190815260200160002060006101000a81548173ffffffffffffffffffffffffffffffffffffffff021916908373ffffffffffffffffffffffffffffffffffffffff160217905550808273ffffffffffffffffffffffffffffffffffffffff168473ffffffffffffffffffffffffffffffffffffffff167fddf252ad1be2c89b69c2b068fc378daa952ba7f163c4a11628f55a4df523b3ef60405160405180910390a4611024838383611503565b505050565b8173ffffffffffffffffffffffffffffffffffffffff168373ffffffffffffffffffffffffffffffffffffffff161415611098576040517f08c379a000000000000000000000000000000000000000000000000000000000815260040161108f906126ed565b60405180910390fd5b80600560008573ffffffffffffffffffffffffffffffffffffffff1673ffffffffffffffffffffffffffffffffffffffff16815260200190815260200160002060008473ffffffffffffffffffffffffffffffffffffffff1673ffffffffffffffffffffffffffffffffffffffff16815260200190815260200160002060006101000a81548160ff0219169083151502179055508173ffffffffffffffffffffffffffffffffffffffff168373ffffffffffffffffffffffffffffffffffffffff167f17307eab39ab6107e8899845ad3d59bd9653f200f220920489ca2b5937696c3183604051611189919061197a565b60405180910390a3505050565b6111a1848484610dc2565b6111ad84848484611508565b6111ec576040517f08c379a00000000000000000000000000000000000000000000000000000000081526004016111e39061277f565b60405180910390fd5b50505050565b606060405180602001604052806000815250905090565b606061121482610bb7565b611253576040517f08c379a000000000000000000000000000000000000000000000000000000000815260040161124a90612811565b60405180910390fd5b600061125d6111f2565b9050600081511161127d57604051806020016040528060008152506112a8565b806112878461169f565b60405160200161129892919061240e565b6040516020818303038152906040525b915050919050565b600073ffffffffffffffffffffffffffffffffffffffff168273ffffffffffffffffffffffffffffffffffffffff161415611320576040517f08c379a00000000000000000000000000000000000000000000000000000000081526004016113179061287d565b60405180910390fd5b61132981610bb7565b15611369576040517f08c379a0000000000000000000000000000000000000000000000000000000008152600401611360906128e9565b60405180910390fd5b611375600083836114fe565b6001600360008473ffffffffffffffffffffffffffffffffffffffff1673ffffffffffffffffffffffffffffffffffffffff16815260200190815260200160002060008282546113c5919061264b565b92505081905550816002600083815260200190815260200160002060006101000a81548173ffffffffffffffffffffffffffffffffffffffff021916908373ffffffffffffffffffffffffffffffffffffffff160217905550808273ffffffffffffffffffffffffffffffffffffffff16600073ffffffffffffffffffffffffffffffffffffffff167fddf252ad1be2c89b69c2b068fc378daa952ba7f163c4a11628f55a4df523b3ef60405160405180910390a461148660008383611503565b5050565b61149382610bb7565b6114d2576040517f08c379a00000000000000000000000000000000000000000000000000000000081526004016114c99061297b565b60405180910390fd5b806006600084815260200190815260200160002090805190602001906114f9929190611823565b505050565b505050565b505050565b60006115298473ffffffffffffffffffffffffffffffffffffffff16611800565b15611692578373ffffffffffffffffffffffffffffffffffffffff1663150b7a02611552610c23565b8786866040518563ffffffff1660e01b815260040161157494939291906129f0565b602060405180830381600087803b15801561158e57600080fd5b505af19250505080156115bf57506040513d601f19601f820116820180604052508101906115bc9190612a51565b60015b611642573d80600081146115ef576040519150601f19603f3d011682016040523d82523d6000602084013e6115f4565b606091505b5060008151141561163a576040517f08c379a00000000000000000000000000000000000000000000000000000000081526004016116319061277f565b60405180910390fd5b805181602001fd5b63150b7a0260e01b7bffffffffffffffffffffffffffffffffffffffffffffffffffffffff1916817bffffffffffffffffffffffffffffffffffffffffffffffffffffffff191614915050611697565b600190505b949350505050565b606060008214156116e7576040518060400160405280600181526020017f300000000000000000000000000000000000000000000000000000000000000081525090506117fb565b600082905060005b6000821461171957808061170290612a7e565b915050600a826117129190612af6565b91506116ef565b60008167ffffffffffffffff81111561173557611734611c9b565b5b6040519080825280601f01601f1916602001820160405280156117675781602001600182028036833780820191505090505b5090505b600085146117f4576001826117809190612617565b9150600a8561178f9190612b27565b603061179b919061264b565b60f81b8183815181106117b1576117b0612b58565b5b60200101907effffffffffffffffffffffffffffffffffffffffffffffffffffffffffffff1916908160001a905350600a856117ed9190612af6565b945061176b565b8093505050505b919050565b6000808273ffffffffffffffffffffffffffffffffffffffff163b119050919050565b82805461182f90611fa2565b90600052602060002090601f0160209004810192826118515760008555611898565b82601f1061186a57805160ff1916838001178555611898565b82800160010185558215611898579182015b8281111561189757825182559160200191906001019061187c565b5b5090506118a591906118a9565b5090565b5b808211156118c25760008160009055506001016118aa565b5090565b6000604051905090565b600080fd5b600080fd5b60007fffffffff0000000000000000000000000000000000000000000000000000000082169050919050565b61190f816118da565b811461191a57600080fd5b50565b60008135905061192c81611906565b92915050565b600060208284031215611948576119476118d0565b5b60006119568482850161191d565b91505092915050565b60008115159050919050565b6119748161195f565b82525050565b600060208201905061198f600083018461196b565b92915050565b600081519050919050565b600082825260208201905092915050565b60005b838110156119cf5780820151818401526020810190506119b4565b838111156119de576000848401525b50505050565b6000601f19601f8301169050919050565b6000611a0082611995565b611a0a81856119a0565b9350611a1a8185602086016119b1565b611a23816119e4565b840191505092915050565b60006020820190508181036000830152611a4881846119f5565b905092915050565b6000819050919050565b611a6381611a50565b8114611a6e57600080fd5b50565b600081359050611a8081611a5a565b92915050565b600060208284031215611a9c57611a9b6118d0565b5b6000611aaa84828501611a71565b91505092915050565b600073ffffffffffffffffffffffffffffffffffffffff82169050919050565b6000611ade82611ab3565b9050919050565b611aee81611ad3565b82525050565b6000602082019050611b096000830184611ae5565b92915050565b611b1881611ad3565b8114611b2357600080fd5b50565b600081359050611b3581611b0f565b92915050565b60008060408385031215611b5257611b516118d0565b5b6000611b6085828601611b26565b9250506020611b7185828601611a71565b9150509250929050565b600080600060608486031215611b9457611b936118d0565b5b6000611ba286828701611b26565b9350506020611bb386828701611b26565b9250506040611bc486828701611a71565b9150509250925092565b600060208284031215611be457611be36118d0565b5b6000611bf284828501611b26565b91505092915050565b611c0481611a50565b82525050565b6000602082019050611c1f6000830184611bfb565b92915050565b611c2e8161195f565b8114611c3957600080fd5b50565b600081359050611c4b81611c25565b92915050565b60008060408385031215611c6857611c676118d0565b5b6000611c7685828601611b26565b9250506020611c8785828601611c3c565b9150509250929050565b600080fd5b600080fd5b7f4e487b7100000000000000000000000000000000000000000000000000000000600052604160045260246000fd5b611cd3826119e4565b810181811067ffffffffffffffff82111715611cf257611cf1611c9b565b5b80604052505050565b6000611d056118c6565b9050611d118282611cca565b919050565b600067ffffffffffffffff821115611d3157611d30611c9b565b5b611d3a826119e4565b9050602081019050919050565b82818337600083830152505050565b6000611d69611d6484611d16565b611cfb565b905082815260208101848484011115611d8557611d84611c96565b5b611d90848285611d47565b509392505050565b600082601f830112611dad57611dac611c91565b5b8135611dbd848260208601611d56565b91505092915050565b60008060008060808587031215611de057611ddf6118d0565b5b6000611dee87828801611b26565b9450506020611dff87828801611b26565b9350506040611e1087828801611a71565b925050606085013567ffffffffffffffff811115611e3157611e306118d5565b5b611e3d87828801611d98565b91505092959194509250565b600067ffffffffffffffff821115611e6457611e63611c9b565b5b611e6d826119e4565b9050602081019050919050565b6000611e8d611e8884611e49565b611cfb565b905082815260208101848484011115611ea957611ea8611c96565b5b611eb4848285611d47565b509392505050565b600082601f830112611ed157611ed0611c91565b5b8135611ee1848260208601611e7a565b91505092915050565b600060208284031215611f0057611eff6118d0565b5b600082013567ffffffffffffffff811115611f1e57611f1d6118d5565b5b611f2a84828501611ebc565b91505092915050565b60008060408385031215611f4a57611f496118d0565b5b6000611f5885828601611b26565b9250506020611f6985828601611b26565b9150509250929050565b7f4e487b7100000000000000000000000000000000000000000000000000000000600052602260045260246000fd5b60006002820490506001821680611fba57607f821691505b60208210811415611fce57611fcd611f73565b5b50919050565b7f4552433732313a20617070726f76656420717565727920666f72206e6f6e657860008201527f697374656e7420746f6b656e0000000000000000000000000000000000000000602082015250565b6000612030602c836119a0565b915061203b82611fd4565b604082019050919050565b6000602082019050818103600083015261205f81612023565b9050919050565b7f4552433732313a20617070726f76616c20746f2063757272656e74206f776e6560008201527f7200000000000000000000000000000000000000000000000000000000000000602082015250565b60006120c26021836119a0565b91506120cd82612066565b604082019050919050565b600060208201905081810360008301526120f1816120b5565b9050919050565b7f4552433732313a20617070726f76652063616c6c6572206973206e6f74206f7760008201527f6e6572206e6f7220617070726f76656420666f7220616c6c0000000000000000602082015250565b60006121546038836119a0565b915061215f826120f8565b604082019050919050565b6000602082019050818103600083015261218381612147565b9050919050565b7f4552433732313a207472616e736665722063616c6c6572206973206e6f74206f60008201527f776e6572206e6f7220617070726f766564000000000000000000000000000000602082015250565b60006121e66031836119a0565b91506121f18261218a565b604082019050919050565b60006020820190508181036000830152612215816121d9565b9050919050565b7f4552433732313a206f776e657220717565727920666f72206e6f6e657869737460008201527f656e7420746f6b656e0000000000000000000000000000000000000000000000602082015250565b60006122786029836119a0565b91506122838261221c565b604082019050919050565b600060208201905081810360008301526122a78161226b565b9050919050565b7f4552433732313a2062616c616e636520717565727920666f7220746865207a6560008201527f726f206164647265737300000000000000000000000000000000000000000000602082015250565b600061230a602a836119a0565b9150612315826122ae565b604082019050919050565b60006020820190508181036000830152612339816122fd565b9050919050565b7f45524337323155524953746f726167653a2055524920717565727920666f722060008201527f6e6f6e6578697374656e7420746f6b656e000000000000000000000000000000602082015250565b600061239c6031836119a0565b91506123a782612340565b604082019050919050565b600060208201905081810360008301526123cb8161238f565b9050919050565b600081905092915050565b60006123e882611995565b6123f281856123d2565b93506124028185602086016119b1565b80840191505092915050565b600061241a82856123dd565b915061242682846123dd565b91508190509392505050565b7f4552433732313a206f70657261746f7220717565727920666f72206e6f6e657860008201527f697374656e7420746f6b656e0000000000000000000000000000000000000000602082015250565b600061248e602c836119a0565b915061249982612432565b604082019050919050565b600060208201905081810360008301526124bd81612481565b9050919050565b7f4552433732313a207472616e736665722066726f6d20696e636f72726563742060008201527f6f776e6572000000000000000000000000000000000000000000000000000000602082015250565b60006125206025836119a0565b915061252b826124c4565b604082019050919050565b6000602082019050818103600083015261254f81612513565b9050919050565b7f4552433732313a207472616e7366657220746f20746865207a65726f2061646460008201527f7265737300000000000000000000000000000000000000000000000000000000602082015250565b60006125b26024836119a0565b91506125bd82612556565b604082019050919050565b600060208201905081810360008301526125e1816125a5565b9050919050565b7f4e487b7100000000000000000000000000000000000000000000000000000000600052601160045260246000fd5b600061262282611a50565b915061262d83611a50565b9250828210156126405761263f6125e8565b5b828203905092915050565b600061265682611a50565b915061266183611a50565b9250827fffffffffffffffffffffffffffffffffffffffffffffffffffffffffffffffff03821115612696576126956125e8565b5b828201905092915050565b7f4552433732313a20617070726f766520746f2063616c6c657200000000000000600082015250565b60006126d76019836119a0565b91506126e2826126a1565b602082019050919050565b60006020820190508181036000830152612706816126ca565b9050919050565b7f4552433732313a207472616e7366657220746f206e6f6e20455243373231526560008201527f63656976657220696d706c656d656e7465720000000000000000000000000000602082015250565b60006127696032836119a0565b91506127748261270d565b604082019050919050565b600060208201905081810360008301526127988161275c565b9050919050565b7f4552433732314d657461646174613a2055524920717565727920666f72206e6f60008201527f6e6578697374656e7420746f6b656e0000000000000000000000000000000000602082015250565b60006127fb602f836119a0565b91506128068261279f565b604082019050919050565b6000602082019050818103600083015261282a816127ee565b9050919050565b7f4552433732313a206d696e7420746f20746865207a65726f2061646472657373600082015250565b60006128676020836119a0565b915061287282612831565b602082019050919050565b600060208201905081810360008301526128968161285a565b9050919050565b7f4552433732313a20746f6b656e20616c7265616479206d696e74656400000000600082015250565b60006128d3601c836119a0565b91506128de8261289d565b602082019050919050565b60006020820190508181036000830152612902816128c6565b9050919050565b7f45524337323155524953746f726167653a2055524920736574206f66206e6f6e60008201527f6578697374656e7420746f6b656e000000000000000000000000000000000000602082015250565b6000612965602e836119a0565b915061297082612909565b604082019050919050565b6000602082019050818103600083015261299481612958565b9050919050565b600081519050919050565b600082825260208201905092915050565b60006129c28261299b565b6129cc81856129a6565b93506129dc8185602086016119b1565b6129e5816119e4565b840191505092915050565b6000608082019050612a056000830187611ae5565b612a126020830186611ae5565b612a1f6040830185611bfb565b8181036060830152612a3181846129b7565b905095945050505050565b600081519050612a4b81611906565b92915050565b600060208284031215612a6757612a666118d0565b5b6000612a7584828501612a3c565b91505092915050565b6000612a8982611a50565b91507fffffffffffffffffffffffffffffffffffffffffffffffffffffffffffffffff821415612abc57612abb6125e8565b5b600182019050919050565b7f4e487b7100000000000000000000000000000000000000000000000000000000600052601260045260246000fd5b6000612b0182611a50565b9150612b0c83611a50565b925082612b1c57612b1b612ac7565b5b828204905092915050565b6000612b3282611a50565b9150612b3d83611a50565b925082612b4d57612b4c612ac7565b5b828206905092915050565b7f4e487b7100000000000000000000000000000000000000000000000000000000600052603260045260246000fdfea26469706673582212207dc2477ef20a9f7057caf3c79c4cce47943715e81df9c83d053ebdda595f185764736f6c6343000809003368747470733a2f2f697066732e696f2f697066732f516d5475645359654d376d7a33506b594557585771506a6f6d5250486f67634d4653713758417673767367415053",
  "linkReferences": {},
  "deployedLinkReferences": {}
}