{
  "_format": "hh-sol-artifact-1",
  "contractName": "Escrow",
  "sourceName": "contracts/Escrow.sol",
  "abi": [
    {
      "inputs": [
        {
          "internalType": "address",
          "name": "_nftAddress",
          "type": "address"
        },
        {
          "internalType": "uint256",
          "name": "_nftID",
          "type": "uint256"
        },
        {
          "internalType": "uint256",
          "name": "_purchasePrice",
          "type": "uint256"
        },
        {
          "internalType": "uint256",
          "name": "_escrowAmount",
          "type": "uint256"
        },
        {
          "internalType": "address payable",
          "name": "_seller",
          "type": "address"
        },
        {
          "internalType": "address payable",
          "name": "_buyer",
          "type": "address"
        },
        {
          "internalType": "address",
          "name": "_inspector",
          "type": "address"
        },
        {
          "internalType": "address",
          "name": "_lender",
          "type": "address"
        }
      ],
      "stateMutability": "nonpayable",
      "type": "constructor"
    },
    {
      "inputs": [
        {
          "internalType": "address",
          "name": "",
          "type": "address"
        }
      ],
      "name": "approval",
      "outputs": [
        {
          "internalType": "bool",
          "name": "",
          "type": "bool"
        }
      ],
      "stateMutability": "view",
      "type": "function"
    },
    {
      "inputs": [],
      "name": "approvalSale",
      "outputs": [],
      "stateMutability": "nonpayable",
      "type": "function"
    },
    {
      "inputs": [],
      "name": "buyer",
      "outputs": [
        {
          "internalType": "address payable",
          "name": "",
          "type": "address"
        }
      ],
      "stateMutability": "view",
      "type": "function"
    },
    {
      "inputs": [],
      "name": "depositEarnest",
      "outputs": [],
      "stateMutability": "payable",
      "type": "function"
    },
    {
      "inputs": [],
      "name": "escrowAmount",
      "outputs": [
        {
          "internalType": "uint256",
          "name": "",
          "type": "uint256"
        }
      ],
      "stateMutability": "view",
      "type": "function"
    },
    {
      "inputs": [],
      "name": "finalizeSale",
      "outputs": [],
      "stateMutability": "nonpayable",
      "type": "function"
    },
    {
      "inputs": [],
      "name": "getBalance",
      "outputs": [
        {
          "internalType": "uint256",
          "name": "",
          "type": "uint256"
        }
      ],
      "stateMutability": "view",
      "type": "function"
    },
    {
      "inputs": [],
      "name": "inspectionPass",
      "outputs": [
        {
          "internalType": "bool",
          "name": "",
          "type": "bool"
        }
      ],
      "stateMutability": "view",
      "type": "function"
    },
    {
      "inputs": [],
      "name": "inspector",
      "outputs": [
        {
          "internalType": "address",
          "name": "",
          "type": "address"
        }
      ],
      "stateMutability": "view",
      "type": "function"
    },
    {
      "inputs": [],
      "name": "lender",
      "outputs": [
        {
          "internalType": "address",
          "name": "",
          "type": "address"
        }
      ],
      "stateMutability": "view",
      "type": "function"
    },
    {
      "inputs": [],
      "name": "nftAddress",
      "outputs": [
        {
          "internalType": "address",
          "name": "",
          "type": "address"
        }
      ],
      "stateMutability": "view",
      "type": "function"
    },
    {
      "inputs": [],
      "name": "nftID",
      "outputs": [
        {
          "internalType": "uint256",
          "name": "",
          "type": "uint256"
        }
      ],
      "stateMutability": "view",
      "type": "function"
    },
    {
      "inputs": [],
      "name": "purchasePrice",
      "outputs": [
        {
          "internalType": "uint256",
          "name": "",
          "type": "uint256"
        }
      ],
      "stateMutability": "view",
      "type": "function"
    },
    {
      "inputs": [],
      "name": "seller",
      "outputs": [
        {
          "internalType": "address payable",
          "name": "",
          "type": "address"
        }
      ],
      "stateMutability": "view",
      "type": "function"
    },
    {
      "inputs": [
        {
          "internalType": "bool",
          "name": "_passed",
          "type": "bool"
        }
      ],
      "name": "updateInspectionStatus",
      "outputs": [],
      "stateMutability": "nonpayable",
      "type": "function"
    },
    {
      "stateMutability": "payable",
      "type": "receive"
    }
  ],
  "bytecode": "0x60806040526000600760146101000a81548160ff0219169083151502179055503480156200002c57600080fd5b506040516200139b3803806200139b8339818101604052810190620000529190620002a3565b876000806101000a81548173ffffffffffffffffffffffffffffffffffffffff021916908373ffffffffffffffffffffffffffffffffffffffff1602179055508660018190555083600460006101000a81548173ffffffffffffffffffffffffffffffffffffffff021916908373ffffffffffffffffffffffffffffffffffffffff16021790555082600560006101000a81548173ffffffffffffffffffffffffffffffffffffffff021916908373ffffffffffffffffffffffffffffffffffffffff160217905550856002819055508460038190555081600660006101000a81548173ffffffffffffffffffffffffffffffffffffffff021916908373ffffffffffffffffffffffffffffffffffffffff16021790555080600760006101000a81548173ffffffffffffffffffffffffffffffffffffffff021916908373ffffffffffffffffffffffffffffffffffffffff16021790555050505050505050506200036c565b600080fd5b600073ffffffffffffffffffffffffffffffffffffffff82169050919050565b6000620001eb82620001be565b9050919050565b620001fd81620001de565b81146200020957600080fd5b50565b6000815190506200021d81620001f2565b92915050565b6000819050919050565b620002388162000223565b81146200024457600080fd5b50565b60008151905062000258816200022d565b92915050565b60006200026b82620001be565b9050919050565b6200027d816200025e565b81146200028957600080fd5b50565b6000815190506200029d8162000272565b92915050565b600080600080600080600080610100898b031215620002c757620002c6620001b9565b5b6000620002d78b828c016200020c565b9850506020620002ea8b828c0162000247565b9750506040620002fd8b828c0162000247565b9650506060620003108b828c0162000247565b9550506080620003238b828c016200028c565b94505060a0620003368b828c016200028c565b93505060c0620003498b828c016200020c565b92505060e06200035c8b828c016200020c565b9150509295985092959890939650565b61101f806200037c6000396000f3fe6080604052600436106100ec5760003560e01c80636f9b2ea41161008a578063c399475211610059578063c39947521461029a578063cdd765f8146102c5578063defd6c5f146102ee578063ed2cee9e14610319576100f3565b80636f9b2ea4146101dc5780637150d8ae146102075780639430b49614610232578063bcead63e1461026f576100f3565b806347a7846f116100c657806347a7846f1461016557806358a687ec146101905780635af41d61146101a75780635bf8633a146101b1576100f3565b806308551a53146100f857806312065fe014610123578063374af32e1461014e576100f3565b366100f357005b600080fd5b34801561010457600080fd5b5061010d610344565b60405161011a9190610a44565b60405180910390f35b34801561012f57600080fd5b5061013861036a565b6040516101459190610a78565b60405180910390f35b34801561015a57600080fd5b50610163610372565b005b34801561017157600080fd5b5061017a6103cc565b6040516101879190610a78565b60405180910390f35b34801561019c57600080fd5b506101a56103d2565b005b6101af6107e0565b005b3480156101bd57600080fd5b506101c6610881565b6040516101d39190610ab4565b60405180910390f35b3480156101e857600080fd5b506101f16108a5565b6040516101fe9190610aea565b60405180910390f35b34801561021357600080fd5b5061021c6108b8565b6040516102299190610a44565b60405180910390f35b34801561023e57600080fd5b5061025960048036038101906102549190610b36565b6108de565b6040516102669190610aea565b60405180910390f35b34801561027b57600080fd5b506102846108fe565b6040516102919190610ab4565b60405180910390f35b3480156102a657600080fd5b506102af610924565b6040516102bc9190610a78565b60405180910390f35b3480156102d157600080fd5b506102ec60048036038101906102e79190610b8f565b61092a565b005b3480156102fa57600080fd5b506103036109d7565b6040516103109190610a78565b60405180910390f35b34801561032557600080fd5b5061032e6109dd565b60405161033b9190610ab4565b60405180910390f35b600460009054906101000a900473ffffffffffffffffffffffffffffffffffffffff1681565b600047905090565b6001600860003373ffffffffffffffffffffffffffffffffffffffff1673ffffffffffffffffffffffffffffffffffffffff16815260200190815260200160002060006101000a81548160ff021916908315150217905550565b60035481565b600760149054906101000a900460ff16610421576040517f08c379a000000000000000000000000000000000000000000000000000000000815260040161041890610c19565b60405180910390fd5b60086000600560009054906101000a900473ffffffffffffffffffffffffffffffffffffffff1673ffffffffffffffffffffffffffffffffffffffff1673ffffffffffffffffffffffffffffffffffffffff16815260200190815260200160002060009054906101000a900460ff166104cf576040517f08c379a00000000000000000000000000000000000000000000000000000000081526004016104c690610c85565b60405180910390fd5b60086000600460009054906101000a900473ffffffffffffffffffffffffffffffffffffffff1673ffffffffffffffffffffffffffffffffffffffff1673ffffffffffffffffffffffffffffffffffffffff16815260200190815260200160002060009054906101000a900460ff1661057d576040517f08c379a000000000000000000000000000000000000000000000000000000000815260040161057490610cf1565b60405180910390fd5b60086000600760009054906101000a900473ffffffffffffffffffffffffffffffffffffffff1673ffffffffffffffffffffffffffffffffffffffff1673ffffffffffffffffffffffffffffffffffffffff16815260200190815260200160002060009054906101000a900460ff1661062b576040517f08c379a000000000000000000000000000000000000000000000000000000000815260040161062290610d5d565b60405180910390fd5b600254471015610670576040517f08c379a000000000000000000000000000000000000000000000000000000000815260040161066790610dc9565b60405180910390fd5b6000600460009054906101000a900473ffffffffffffffffffffffffffffffffffffffff1673ffffffffffffffffffffffffffffffffffffffff16476040516106b890610e1a565b60006040518083038185875af1925050503d80600081146106f5576040519150601f19603f3d011682016040523d82523d6000602084013e6106fa565b606091505b505090508061070857600080fd5b60008054906101000a900473ffffffffffffffffffffffffffffffffffffffff1673ffffffffffffffffffffffffffffffffffffffff166323b872dd600460009054906101000a900473ffffffffffffffffffffffffffffffffffffffff16600560009054906101000a900473ffffffffffffffffffffffffffffffffffffffff166001546040518463ffffffff1660e01b81526004016107ab93929190610e8e565b600060405180830381600087803b1580156107c557600080fd5b505af11580156107d9573d6000803e3d6000fd5b5050505050565b600560009054906101000a900473ffffffffffffffffffffffffffffffffffffffff1673ffffffffffffffffffffffffffffffffffffffff163373ffffffffffffffffffffffffffffffffffffffff1614610870576040517f08c379a000000000000000000000000000000000000000000000000000000000815260040161086790610f37565b60405180910390fd5b60035434101561087f57600080fd5b565b60008054906101000a900473ffffffffffffffffffffffffffffffffffffffff1681565b600760149054906101000a900460ff1681565b600560009054906101000a900473ffffffffffffffffffffffffffffffffffffffff1681565b60086020528060005260406000206000915054906101000a900460ff1681565b600760009054906101000a900473ffffffffffffffffffffffffffffffffffffffff1681565b60015481565b600660009054906101000a900473ffffffffffffffffffffffffffffffffffffffff1673ffffffffffffffffffffffffffffffffffffffff163373ffffffffffffffffffffffffffffffffffffffff16146109ba576040517f08c379a00000000000000000000000000000000000000000000000000000000081526004016109b190610fc9565b60405180910390fd5b80600760146101000a81548160ff02191690831515021790555050565b60025481565b600660009054906101000a900473ffffffffffffffffffffffffffffffffffffffff1681565b600073ffffffffffffffffffffffffffffffffffffffff82169050919050565b6000610a2e82610a03565b9050919050565b610a3e81610a23565b82525050565b6000602082019050610a596000830184610a35565b92915050565b6000819050919050565b610a7281610a5f565b82525050565b6000602082019050610a8d6000830184610a69565b92915050565b6000610a9e82610a03565b9050919050565b610aae81610a93565b82525050565b6000602082019050610ac96000830184610aa5565b92915050565b60008115159050919050565b610ae481610acf565b82525050565b6000602082019050610aff6000830184610adb565b92915050565b600080fd5b610b1381610a93565b8114610b1e57600080fd5b50565b600081359050610b3081610b0a565b92915050565b600060208284031215610b4c57610b4b610b05565b5b6000610b5a84828501610b21565b91505092915050565b610b6c81610acf565b8114610b7757600080fd5b50565b600081359050610b8981610b63565b92915050565b600060208284031215610ba557610ba4610b05565b5b6000610bb384828501610b7a565b91505092915050565b600082825260208201905092915050565b7f6d757374207061737320696e7370656374696f6e000000000000000000000000600082015250565b6000610c03601483610bbc565b9150610c0e82610bcd565b602082019050919050565b60006020820190508181036000830152610c3281610bf6565b9050919050565b7f6d75737420626520617070726f76616c20627579657200000000000000000000600082015250565b6000610c6f601683610bbc565b9150610c7a82610c39565b602082019050919050565b60006020820190508181036000830152610c9e81610c62565b9050919050565b7f6d75737420626520617070726f76616c2073656c6c6572000000000000000000600082015250565b6000610cdb601783610bbc565b9150610ce682610ca5565b602082019050919050565b60006020820190508181036000830152610d0a81610cce565b9050919050565b7f6d75737420626520617070726f76616c206c656e646572000000000000000000600082015250565b6000610d47601783610bbc565b9150610d5282610d11565b602082019050919050565b60006020820190508181036000830152610d7681610d3a565b9050919050565b7f6d75737420686176652065746865722066756e64730000000000000000000000600082015250565b6000610db3601583610bbc565b9150610dbe82610d7d565b602082019050919050565b60006020820190508181036000830152610de281610da6565b9050919050565b600081905092915050565b50565b6000610e04600083610de9565b9150610e0f82610df4565b600082019050919050565b6000610e2582610df7565b9150819050919050565b6000819050919050565b6000610e54610e4f610e4a84610a03565b610e2f565b610a03565b9050919050565b6000610e6682610e39565b9050919050565b6000610e7882610e5b565b9050919050565b610e8881610e6d565b82525050565b6000606082019050610ea36000830186610e7f565b610eb06020830185610e7f565b610ebd6040830184610a69565b949350505050565b7f6f6e6c792062757965722063616e2063616c6c20746869732066756e6361746960008201527f6f6e000000000000000000000000000000000000000000000000000000000000602082015250565b6000610f21602283610bbc565b9150610f2c82610ec5565b604082019050919050565b60006020820190508181036000830152610f5081610f14565b9050919050565b7f6f6e6c7920696e73706563746f722063616e2063616c6c20746869732066756e60008201527f636174696f6e0000000000000000000000000000000000000000000000000000602082015250565b6000610fb3602683610bbc565b9150610fbe82610f57565b604082019050919050565b60006020820190508181036000830152610fe281610fa6565b905091905056fea26469706673582212201dbf0825cbb199781f1bb6cb1dbb9f96b7961a23eb0b416cbb90b64f9b826efd64736f6c63430008090033",
  "linkReferences": {},
  "deployedLinkReferences": {}
}