{
  "_format": "hh-sol-artifact-1",
  "contractName": "counter",
  "sourceName": "contracts/Counter.sol",
  "abi": [
    {
      "inputs": [
        {
          "internalType": "string",
          "name": "_name",
          "type": "string"
        },
        {
          "internalType": "uint256",
          "name": "_initialCount",
          "type": "uint256"
        }
      ],
      "stateMutability": "nonpayable",
      "type": "constructor"
    },
    {
      "inputs": [],
      "name": "count",
      "outputs": [
        {
          "internalType": "uint256",
          "name": "",
          "type": "uint256"
        }
      ],
      "stateMutability": "view",
      "type": "function"
    },
    {
      "inputs": [],
      "name": "decrement",
      "outputs": [
        {
          "internalType": "uint256",
          "name": "newCount",
          "type": "uint256"
        }
      ],
      "stateMutability": "nonpayable",
      "type": "function"
    },
    {
      "inputs": [],
      "name": "getCount",
      "outputs": [
        {
          "internalType": "uint256",
          "name": "newCount",
          "type": "uint256"
        }
      ],
      "stateMutability": "view",
      "type": "function"
    },
    {
      "inputs": [],
      "name": "getName",
      "outputs": [
        {
          "internalType": "string",
          "name": "newName",
          "type": "string"
        }
      ],
      "stateMutability": "view",
      "type": "function"
    },
    {
      "inputs": [],
      "name": "increment",
      "outputs": [
        {
          "internalType": "uint256",
          "name": "newCount",
          "type": "uint256"
        }
      ],
      "stateMutability": "nonpayable",
      "type": "function"
    },
    {
      "inputs": [],
      "name": "name",
      "outputs": [
        {
          "internalType": "string",
          "name": "",
          "type": "string"
        }
      ],
      "stateMutability": "view",
      "type": "function"
    },
    {
      "inputs": [
        {
          "internalType": "string",
          "name": "_name",
          "type": "string"
        }
      ],
      "name": "setName",
      "outputs": [],
      "stateMutability": "nonpayable",
      "type": "function"
    }
  ],
  "bytecode": "0x60806040523480156200001157600080fd5b5060405162000aff38038062000aff8339818101604052810190620000379190620002e7565b81600090805190602001906200004f9291906200005f565b50806001819055505050620003b2565b8280546200006d906200037c565b90600052602060002090601f016020900481019282620000915760008555620000dd565b82601f10620000ac57805160ff1916838001178555620000dd565b82800160010185558215620000dd579182015b82811115620000dc578251825591602001919060010190620000bf565b5b509050620000ec9190620000f0565b5090565b5b808211156200010b576000816000905550600101620000f1565b5090565b6000604051905090565b600080fd5b600080fd5b600080fd5b600080fd5b6000601f19601f8301169050919050565b7f4e487b7100000000000000000000000000000000000000000000000000000000600052604160045260246000fd5b62000178826200012d565b810181811067ffffffffffffffff821117156200019a57620001996200013e565b5b80604052505050565b6000620001af6200010f565b9050620001bd82826200016d565b919050565b600067ffffffffffffffff821115620001e057620001df6200013e565b5b620001eb826200012d565b9050602081019050919050565b60005b8381101562000218578082015181840152602081019050620001fb565b8381111562000228576000848401525b50505050565b6000620002456200023f84620001c2565b620001a3565b90508281526020810184848401111562000264576200026362000128565b5b62000271848285620001f8565b509392505050565b600082601f83011262000291576200029062000123565b5b8151620002a38482602086016200022e565b91505092915050565b6000819050919050565b620002c181620002ac565b8114620002cd57600080fd5b50565b600081519050620002e181620002b6565b92915050565b6000806040838503121562000301576200030062000119565b5b600083015167ffffffffffffffff8111156200032257620003216200011e565b5b620003308582860162000279565b92505060206200034385828601620002d0565b9150509250929050565b7f4e487b7100000000000000000000000000000000000000000000000000000000600052602260045260246000fd5b600060028204905060018216806200039557607f821691505b60208210811415620003ac57620003ab6200034d565b5b50919050565b61073d80620003c26000396000f3fe608060405234801561001057600080fd5b506004361061007d5760003560e01c80632baeceb71161005b5780632baeceb7146100dc578063a87d942c146100fa578063c47f002714610118578063d09de08a146101345761007d565b806306661abd1461008257806306fdde03146100a057806317d7de7c146100be575b600080fd5b61008a610152565b604051610097919061039c565b60405180910390f35b6100a8610158565b6040516100b59190610450565b60405180910390f35b6100c66101e6565b6040516100d39190610450565b60405180910390f35b6100e4610278565b6040516100f1919061039c565b60405180910390f35b61010261029a565b60405161010f919061039c565b60405180910390f35b610132600480360381019061012d91906105bb565b6102a4565b005b61013c6102be565b604051610149919061039c565b60405180910390f35b60015481565b6000805461016590610633565b80601f016020809104026020016040519081016040528092919081815260200182805461019190610633565b80156101de5780601f106101b3576101008083540402835291602001916101de565b820191906000526020600020905b8154815290600101906020018083116101c157829003601f168201915b505050505081565b6060600080546101f590610633565b80601f016020809104026020016040519081016040528092919081815260200182805461022190610633565b801561026e5780601f106102435761010080835404028352916020019161026e565b820191906000526020600020905b81548152906001019060200180831161025157829003601f168201915b5050505050905090565b60006001600081548092919061028d90610694565b9190505550600154905090565b6000600154905090565b80600090805190602001906102ba9291906102e0565b5050565b6000600160008154809291906102d3906106be565b9190505550600154905090565b8280546102ec90610633565b90600052602060002090601f01602090048101928261030e5760008555610355565b82601f1061032757805160ff1916838001178555610355565b82800160010185558215610355579182015b82811115610354578251825591602001919060010190610339565b5b5090506103629190610366565b5090565b5b8082111561037f576000816000905550600101610367565b5090565b6000819050919050565b61039681610383565b82525050565b60006020820190506103b1600083018461038d565b92915050565b600081519050919050565b600082825260208201905092915050565b60005b838110156103f15780820151818401526020810190506103d6565b83811115610400576000848401525b50505050565b6000601f19601f8301169050919050565b6000610422826103b7565b61042c81856103c2565b935061043c8185602086016103d3565b61044581610406565b840191505092915050565b6000602082019050818103600083015261046a8184610417565b905092915050565b6000604051905090565b600080fd5b600080fd5b600080fd5b600080fd5b7f4e487b7100000000000000000000000000000000000000000000000000000000600052604160045260246000fd5b6104c882610406565b810181811067ffffffffffffffff821117156104e7576104e6610490565b5b80604052505050565b60006104fa610472565b905061050682826104bf565b919050565b600067ffffffffffffffff82111561052657610525610490565b5b61052f82610406565b9050602081019050919050565b82818337600083830152505050565b600061055e6105598461050b565b6104f0565b90508281526020810184848401111561057a5761057961048b565b5b61058584828561053c565b509392505050565b600082601f8301126105a2576105a1610486565b5b81356105b284826020860161054b565b91505092915050565b6000602082840312156105d1576105d061047c565b5b600082013567ffffffffffffffff8111156105ef576105ee610481565b5b6105fb8482850161058d565b91505092915050565b7f4e487b7100000000000000000000000000000000000000000000000000000000600052602260045260246000fd5b6000600282049050600182168061064b57607f821691505b6020821081141561065f5761065e610604565b5b50919050565b7f4e487b7100000000000000000000000000000000000000000000000000000000600052601160045260246000fd5b600061069f82610383565b915060008214156106b3576106b2610665565b5b600182039050919050565b60006106c982610383565b91507fffffffffffffffffffffffffffffffffffffffffffffffffffffffffffffffff8214156106fc576106fb610665565b5b60018201905091905056fea26469706673582212204d1875922badaa7d75ba26575f25f96cf00fcf27e301cc1cb13d6bc2c009485064736f6c63430008090033",
  "linkReferences": {},
  "deployedLinkReferences": {}
}